{
  "contractName": "TestContract",
  "abi": [
    {
      "inputs": [],
      "name": "counter",
      "outputs": [
        {
          "internalType": "uint256",
          "name": "",
          "type": "uint256"
        }
      ],
      "stateMutability": "view",
      "type": "function"
    },
    {
      "inputs": [],
      "name": "increment",
      "outputs": [],
      "stateMutability": "nonpayable",
      "type": "function"
    },
    {
      "inputs": [],
      "name": "decrement",
      "outputs": [],
      "stateMutability": "nonpayable",
      "type": "function"
    }
  ],
  "bytecode": "0x60806040526000805534801561001457600080fd5b506101cf806100246000396000f3fe608060405234801561001057600080fd5b50600436106100415760003560e01c80632baeceb71461004657806361bc221a14610050578063d09de08a1461006e575b600080fd5b61004e610078565b005b61005861008f565b60405161006591906100c5565b60405180910390f35b610076610095565b005b6002600054610087919061010f565b600081905550565b60005481565b60026000546100a49190610143565b600081905550565b6000819050919050565b6100bf816100ac565b82525050565b60006020820190506100da60008301846100b6565b92915050565b7f4e487b7100000000000000000000000000000000000000000000000000000000600052601160045260246000fd5b600061011a826100ac565b9150610125836100ac565b925082821015610138576101376100e0565b5b828203905092915050565b600061014e826100ac565b9150610159836100ac565b9250827fffffffffffffffffffffffffffffffffffffffffffffffffffffffffffffffff0382111561018e5761018d6100e0565b5b82820190509291505056fea2646970667358221220134773b2816ede962c28a6196a79e1741eb476f627321b4f947b748963c399f164736f6c634300080c0033",
  "immutableReferences": {},
  "source": "// SPDX-License-Identifier: GPL-3.0\r\npragma solidity >=0.4.16 <0.9.0;\r\n\r\ncontract TestContract {\r\n    uint256 public counter = 0;\r\n\r\n    function increment() public {\r\n        counter = counter + 2;\r\n    }\r\n\r\n    function decrement() public {\r\n        counter = counter - 2;\r\n    }\r\n}\r\n",
  "sourcePath": "C:\\Users\\Vikas Chauhan\\Desktop\\WorkShop-611\\contracts\\demo.sol",
  "compiler": {
    "name": "solc",
    "version": "0.8.12+commit.f00d7308.Emscripten.clang"
  },
  "schemaVersion": "3.4.5",
  "updatedAt": "2022-03-04T06:07:55.398Z",
  "devdoc": {
    "kind": "dev",
    "methods": {},
    "version": 1
  },
  "userdoc": {
    "kind": "user",
    "methods": {},
    "version": 1
  }
}